:100000000C948A000C94B2000C94B2000C94B200D0
:100010000C94B2000C94B2000C94B2000C94B20098
:100020000C94B2000C94B2000C94B2000C94B20088
:100030000C94B2000C94B2000C94B2000C94B20078
:100040000C949F080C94B2000C9417060C9449066B
:100050000C94B2000C94B2000C94B2000C94B20058
:100060000C94B2000C94B20008000000BE92244927
:10007000123EABAAAA2ABECDCCCC4C3E00000080DA
:10008000BEABAAAAAA3E00000000BF000000803F4D
:100090000000000000084178D3BB4387D1133D190D
:1000A0000E3CC3BD4282AD2B3E68EC8276BED98F3A
:1000B000E1A93E4C80EFFFBE01C4FF7F3F0000007E
:1000C0000000000000080002010000030407000017
:1000D000000000000000010204081020408001021E
:1000E000040810200102040810200404040404047D
:1000F00004040202020202020303030303030000DA
:100100000000250028002B0000000000240027002C
:100110002A00790611241FBECFEFD8E0DEBFCDBF85
:1001200011E0A0E0B1E0EAE7F5E102C005900D9230
:10013000A238B107D9F722E0A2E8B1E001C01D92D0
:10014000AA33B207E1F710E0CAE8D0E004C0219773
:10015000FE010E94B50AC938D107C9F70E94A70657
:100160000C94BB0A0C940000CF92DF92EF92FF92A6
:1001700080E00E948509BC01990F880B990B0E94B1
:100180006E039B01AC0160E070E080E894E40E94A3
:10019000C40220E030E040E85FE30E94570220E024
:1001A00030E44CE156E40E944A040E9402046B01D0
:1001B0007C0129E537E44CEB53E30E944A04A70194
:1001C00096010E944A0423E73FE745E759E30E946E
:1001D0005802A70196010E944A042BEE3FEF43E923
:1001E0005AE30E9458029B01AC0160E070E080E895
:1001F0009FE30E94C40260939001709391018093E9
:1002000092019093930123E333E948E853E40E9479
:10021000570260938C0170938D0180938E019093AF
:100220008F0161E071E084E991E00E94F60640915F
:100230008C0150918D0160918E0170918F0122E0AF
:1002400030E084E991E00E949D0862E171E084E978
:1002500091E00E94F60620E030E040E151E4609138
:100260008C0170918D0180918E0190918F010E947F
:100270004A0420E030E040EA50E40E94C40220E05A
:1002800030E040E052E40E9458026093880170938D
:10029000890180938A0190938B0167E171E084E981
:1002A00091E00E94F6064091880150918901609189
:1002B0008A0170918B0122E030E084E991E00E9494
:1002C0009D0868E271E084E991E00E94030768EE0E
:1002D00073E080E090E00E940E09FF90EF90DF90C5
:1002E000CF900895EF92FF920F931F93CF93DF93D8
:1002F00004E511E0C0E0D0E0845C9E4FFC01E080AA
:10030000F12CB7010C2E02C0759567950A94E2F79F
:10031000617077277093830160938201F801808177
:100320000E5F1F4F0E94070A2196C730D10549F77B
:10033000DF91CF911F910F91FF90EF900895EF9271
:10034000FF920F931F93CF93DF9306E411E0C0E079
:10035000D0E0845C9E4FFC01E080F12CB7010C2EB4
:1003600002C0759567950A94E2F7617077277093DC
:10037000830160938201F80180810E5F1F4F0E940C
:10038000070A2196C730D10549F7DF91CF911F9118
:100390000F91FF90EF90089560918C0170918D0105
:1003A00080918E0190918F010E943603CB016AE00B
:1003B00070E00E946B0A70938701609386019093AE
:1003C000850180938401CB010E9472018091840198
:1003D000909185010E949F0168EE73E080E090E0BB
:1003E0000C940E0961E080E00E94CB0961E081E09D
:1003F0000E94CB0961E082E00E94CB0961E083E0CA
:100400000E94CB0961E084E00E94CB0961E085E0B5
:100410000E94CB0961E086E00E94CB0961E087E0A1
:100420000E94CB0961E088E00E94CB0961E089E08D
:100430000E94CB0961E08AE00E94CB0961E08BE079
:100440000E94CB0961E08CE00E94CB0961E08DE065
:100450000E94CB0926E040E855E260E070E084E9C4
:1004600091E00C94B2050E94B4000E94CC016CE2B1
:1004700071E084E991E00E94F60660918601709136
:1004800087014AE050E084E991E00E94B30763E30A
:1004900071E084E991E00E94F60660918401709118
:1004A00085014AE050E084E991E00C94B30750588C
:1004B000BB27AA270E946F020C94C0030E94B203BC
:1004C00038F00E94B90320F039F49F3F19F426F464
:1004D0000C94AF030EF4E095E7FB0C94A903E92F0D
:1004E0000E94D10358F3BA17620773078407950770
:1004F00020F079F4A6F50C94F3030EF4E0950B2E9E
:10050000BA2FA02D0B01B90190010C01CA01A00165
:100510001124FF27591B99F0593F50F4503E68F1C0
:100520001A16F040A22F232F342F4427585FF3CF01
:10053000469537952795A795F0405395C9F77EF4D2
:100540001F16BA0B620B730B840BBAF09150A1F01B
:10055000FF0FBB1F661F771F881FC2F70EC0BA0FA1
:10056000621F731F841F48F4879577956795B79529
:10057000F7959E3F08F0B0CF9395880F08F0992724
:10058000EE0F9795879508950E94D8020C94C003AA
:100590000E94B90358F00E94B20340F029F45F3F73
:1005A00029F00C94A90351110C94F4030C94AF039B
:1005B0000E94D10368F39923B1F3552391F3951B5E
:1005C000550BBB27AA2762177307840738F09F5F74
:1005D0005F4F220F331F441FAA1FA9F335D00E2EE1
:1005E0003AF0E0E832D091505040E695001CCAF74E
:1005F0002BD0FE2F29D0660F771F881FBB1F261711
:1006000037074807AB07B0E809F0BB0B802DBF01E7
:10061000FF2793585F4F3AF09E3F510578F00C94B6
:10062000A9030C94F4035F3FE4F3983ED4F386955A
:1006300077956795B795F7959F5FC9F7880F911DD7
:100640009695879597F90895E1E0660F771F881FC3
:10065000BB1F621773078407BA0720F0621B730B76
:10066000840BBA0BEE1F88F7E09508950E943D03B6
:100670006894B1110C94F40308950E94D90388F092
:100680009F5798F0B92F9927B751B0F0E1F0660F56
:10069000771F881F991F1AF0BA95C9F714C0B13097
:1006A00091F00E94F303B1E008950C94F303672FD7
:1006B000782F8827B85F39F0B93FCCF386957795C6
:1006C0006795B395D9F73EF49095809570956195AF
:1006D0007F4F8F4F9F4F0895E89409C097FB3EF4DA
:1006E00090958095709561957F4F8F4F9F4F99237F
:1006F000A9F0F92F96E9BB279395F69587957795FD
:100700006795B795F111F8CFFAF4BB0F11F460FFBC
:100710001BC06F5F7F4F8F4F9F4F16C0882311F014
:1007200096E911C0772321F09EE8872F762F05C028
:10073000662371F096E8862F70E060E02AF09A95C3
:10074000660F771F881FDAF7880F9695879597F9B8
:10075000089597F99F6780E870E060E008959FEF43
:1007600080EC089500240A94161617061806090648
:10077000089500240A941216130614060506089517
:10078000092E0394000C11F4882352F0BB0F40F49F
:10079000BF2B11F460FF04C06F5F7F4F8F4F9F4FDF
:1007A000089557FD9058440F551F59F05F3F71F061
:1007B0004795880F97FB991F61F09F3F79F08795C8
:1007C0000895121613061406551FF2CF4695F1DF51
:1007D00008C0161617061806991FF1CF86957105E1
:1007E000610508940895E894BB2766277727CB0115
:1007F00097F9089516F00C94B7040C94AF0368941D
:100800000C94A9030E94D903A8F39923C1F3AEF372
:10081000DF93CF931F930F93FF92C92FDD27882378
:100820002AF02197660F771F881FDAF720E030E063
:1008300040E85FEB9FE3883920F0803E38F0219656
:100840008F770E945802E8E6F0E004C00E94580248
:10085000E5E9F0E00E94C5048B01BE01EC01FB2E2E
:100860006F5771097595771F880B990B0E946E035E
:1008700028E132E741E35FE30E945D04AF2D980178
:10088000AE01FF900F911F91CF91DF910E946F02F7
:100890000C94C0030E945D040C94C0030E94B20338
:1008A00038F00E94B90320F0952311F00C94A903AD
:1008B0000C94AF0311240C94F4030E94D10370F341
:1008C000959FC1F3950F50E0551F629FF001729FF5
:1008D000BB27F00DB11D639FAA27F00DB11DAA1F04
:1008E000649F6627B00DA11D661F829F2227B00D51
:1008F000A11D621F739FB00DA11D621F839FA00DDC
:10090000611D221F749F3327A00D611D231F849F2B
:10091000600D211D822F762F6A2F11249F57504082
:100920009AF0F1F088234AF0EE0FFF1FBB1F661FFD
:10093000771F881F91505040A9F79E3F510580F0C6
:100940000C94A9030C94F4035F3FE4F3983ED4F3B2
:10095000869577956795B795F795E7959F5FC1F76A
:10096000FE2B880F911D9695879597F908959F3FC7
:1009700031F0915020F4879577956795B795880F5A
:10098000911D9695879597F90895DF93CF931F93BF
:100990000F93FF92EF92DF927B018C01689406C067
:1009A000DA2EEF010E945D04FE01E894A5912591E5
:1009B000359145915591A6F3EF010E946F02FE011A
:1009C0009701A801DA9469F7DF90EF90FF900F91FB
:1009D0001F91CF91DF910895FC01918D228D892F78
:1009E00090E0805C9F4F821B91098F739927089537
:1009F000FC01918D828D981731F0828DE80FF11DE9
:100A0000858D90E008958FEF9FEF0895FC01918D03
:100A1000828D981761F0828DDF01A80FB11D5D9660
:100A20008C91928D9F5F9F73928F90E008958FEFCE
:100A30009FEF08958FE696E0892B49F080E090E0E3
:100A4000892B29F00E946F0681110C9400000895F3
:100A5000FC01848DDF01A80FB11DA35ABF4F2C915B
:100A6000848D90E001968F739927848FA689B7892A
:100A70002C93A089B1898C9180648C93938D848D03
:100A8000981306C00288F389E02D80818F7D8083D2
:100A90000895CF93DF93EC01888D8823C9F0EA890C
:100AA000FB89808185FD05C0A889B9898C9186FD67
:100AB0000FC00FB607FCF5CF808185FFF2CFA88964
:100AC000B9898C9185FFEDCFCE010E942805E7CF33
:100AD000DF91CF910895EF92FF920F931F93CF93E1
:100AE000DF93EC0181E0888F9B8D8C8D981305C07E
:100AF000E889F989808185FD24C0F62E0B8D10E0F0
:100B00000F5F1F4F0F731127E02E8C8DE8120CC062
:100B10000FB607FCFACFE889F989808185FFF5CF08
:100B2000CE010E942805F1CF8B8DFE01E80FF11D4B
:100B3000E35AFF4FF0820B8FEA89FB898081806244
:100B400007C0EE89FF896083E889F9898081806424
:100B5000808381E090E0DF91CF911F910F91FF9012
:100B6000EF900895CF92DF92EF92FF921F93CF9371
:100B7000DF93EC016A017B01122FE889F98982E099
:100B800080834115514E61057105B1F060E079E057
:100B90008DE390E0A70196010E947F0ADA01C90166
:100BA0000197A109B109B695A79597958795AC01CD
:100BB000411580E15807A8F0E889F989108260E8BA
:100BC00074E88EE190E0A70196010E947F0ABA01C5
:100BD000A9014150510961097109769567955795A9
:100BE0004795EC85FD855083EE85FF854083188E03
:100BF000EC89FD891083EA89FB898081806180838B
:100C0000EA89FB89808188608083EA89FB89808109
:100C100080688083EA89FB8980818F7D8083DF9172
:100C2000CF911F91FF90EF90DF90CF9008951F928A
:100C30000F920FB60F9211242F938F939F93EF93E0
:100C4000FF93E091A401F091A5018081E091AA01B8
:100C5000F091AB0182FD12C090818091AD018F5F58
:100C60008F732091AE01821751F0E091AD01F0E059
:100C7000EC56FE4F958F8093AD0101C08081FF91AE
:100C8000EF919F918F912F910F900FBE0F901F901A
:100C900018951F920F920FB60F9211242F933F9326
:100CA0004F935F936F937F938F939F93AF93BF9374
:100CB000EF93FF9384E991E00E942805FF91EF9163
:100CC000BF91AF919F918F917F916F915F914F9164
:100CD0003F912F910F900FBE0F901F90189584E9B0
:100CE00091E00E94EC0421E0892B09F420E0822F9E
:100CF0000895E4E9F1E01382128288EE93E0A0E027
:100D0000B0E084839583A683B78386E691E09183E0
:100D1000808385EC90E09587848784EC90E09787CA
:100D2000868780EC90E0918B808B81EC90E0938BB8
:100D3000828B82EC90E0958B848B86EC90E0978B95
:100D4000868B118E128E138E148E089508950E9434
:100D50004A090E94A6060E94F201CAE1D5E00E945B
:100D600033022097E1F30E941A05F9CFCF92DF9268
:100D7000EF92FF920F931F93CF93DF936C017A0151
:100D80008B01C0E0D0E0CE15DF0589F0D8016D9170
:100D90008D01D601ED91FC910190F081E02DC6010D
:100DA0000995892B11F47E0102C02196ECCFC70171
:100DB000DF91CF911F910F91FF90EF90DF90CF9037
:100DC00008956115710579F0FB0101900020E9F7A4
:100DD0003197AF01461B570BDC01ED91FC9102806E
:100DE000F381E02D099480E090E008950C94E106F1
:100DF000DC01ED91FC910190F081E02D099462E716
:100E000071E00C94E1060F931F93CF93DF93EC01F5
:100E10000E94E1068C01CE010E94FF06800F911F07
:100E2000DF91CF911F910F9108958F929F92AF9272
:100E3000BF92CF92DF92EF92FF920F931F93CF93C7
:100E4000DF93CDB7DEB7A1970FB6F894DEBF0FBE24
:100E5000CDBF7C01D42EC52EDB0119A2223008F4AF
:100E60002AE08E010F5D1F4F822E912CA12CB12CF8
:100E70006D2D7C2DCD01A50194010E947F0AD22EFB
:100E8000C32EDA01015011096A30710581059105FF
:100E900010F4605D01C0695CF8016083232B242B92
:100EA000252B31F7B801C7010E94E106A1960FB6C4
:100EB000F894DEBF0FBECDBFDF91CF911F910F9190
:100EC000FF90EF90DF90CF90BF90AF909F908F906A
:100ED0000895CF92DF92EF92FF920F931F93CF93DB
:100EE000DF93EC016A017B012115310579F4E8817A
:100EF000F9810190F081E02D642FDF91CF911F9156
:100F00000F91FF90EF90DF90CF9009942A30310538
:100F1000E9F477FF1AC06DE20E94F8068C014427BD
:100F20005527BA014C195D096E097F092AE0CE01E7
:100F30000E941507800F911FDF91CF911F910F9194
:100F4000FF90EF90DF90CF9008952AE0B701A601BF
:100F5000CE01DF91CF911F910F91FF90EF90DF9025
:100F6000CF900C9415079A01AB01770F660B770BA6
:100F70000C9469074F925F926F927F928F929F922B
:100F8000AF92BF92CF92DF92EF92FF92CF93DF9317
:100F9000EC016A017B01B22E9A01AB01C701B601D7
:100FA0000E94660A882319F065E771E027C02601D0
:100FB0003701E89477F82FEF3FEF4FE75FE7C30182
:100FC000B2010E94660A81110DC02FEF3FEF4FE77B
:100FD0005FE7C301B2010E94380A18161CF469E7E2
:100FE00071E00CC02FEF3FEF4FE75FE4C701B601A0
:100FF0000E94610A18169CF46DE771E0CE01DF9142
:10100000CF91FF90EF90DF90CF90BF90AF909F90E7
:101010008F907F906F905F904F900C94E1062FEF30
:101020003FEF4FE75FECC701B6010E94380A87FD2A
:10103000E3CF20E030E0A901C701B6010E94380AE1
:1010400087FF0AC06DE2CE010E94F8064C01F7FA54
:10105000F094F7F8F09402C0812C912CA12C60E060
:1010600070E080E09FE3AB1441F020E030E040E22C
:1010700051E40E94C402A394F6CF9B01AC01C701C6
:10108000B6010E9458022B013C010E943D036B01F6
:101090007C010E946C039B01AC01C301B2010E9460
:1010A00057022B013C012AE0B701A601CE010E94A4
:1010B00015077C01E80CF91CBB2039F06AE271E0ED
:1010C000CE010E94E106E80EF91EDB2CDD2029F19D
:1010D00020E030E040E251E4C301B2010E944A0442
:1010E0002B013C010E943D034B01A12CB12C2AE0B5
:1010F000B501A401CE010E941507E80EF91EC50135
:10110000B4010E946C039B01AC01C301B2010E94B7
:1011100057022B013C01DA94D9CFC701DF91CF915F
:10112000FF90EF90DF90CF90BF90AF909F908F9007
:101130007F906F905F904F9008950C94BA071F9224
:101140000F920FB60F9211242F933F938F939F937B
:10115000AF93BF938091320290913302A0913402F9
:10116000B09135023091310223E0230F2D3720F466
:101170000196A11DB11D05C026E8230F0296A11DF1
:10118000B11D209331028093320290933302A093D9
:101190003402B09335028091360290913702A091CB
:1011A0003802B09139020196A11DB11D809336021B
:1011B00090933702A0933802B0933902BF91AF9158
:1011C0009F918F913F912F910F900FBE0F901F9085
:1011D00018953FB7F8948091360290913702A0910C
:1011E0003802B091390226B5A89B05C02F3F19F0EF
:1011F0000196A11DB11D3FBFBA2FA92F982F882797
:10120000820F911DA11DB11DBC01CD0142E0660FF1
:10121000771F881F991F4A95D1F708958F929F9243
:10122000AF92BF92CF92DF92EF92FF926B017C015F
:101230000E94E9084B015C01C114D104E104F104EE
:1012400001F10E94370A0E94E908DC01CB018819EC
:101250009909AA09BB09883E9340A105B10560F32D
:1012600021E0C21AD108E108F10888EE880E83E077
:10127000981EA11CB11CC114D104E104F10419F79A
:10128000DBCFFF90EF90DF90CF90BF90AF909F901B
:101290008F900895789484B5826084BD84B5816010
:1012A00084BD85B5826085BD85B5816085BDEEE66E
:1012B000F0E0808181608083E1E8F0E0108280814D
:1012C00082608083808181608083E0E8F0E08081BB
:1012D00081608083E1EBF0E0808184608083E0EBDB
:1012E000F0E0808181608083EAE7F0E080818460C3
:1012F000808380818260808380818160808380811F
:10130000806880831092C10008958E3008F08E505E
:1013100087702091000190E4299F90011124822B75
:1013200080937C0080917A00806480937A00809121
:101330007A0086FDFCCF809178002091790090E0C2
:10134000922B0895833081F028F4813099F0823017
:10135000A1F008958730A9F08830B9F08430D1F435
:10136000809180008F7D03C0809180008F77809373
:101370008000089584B58F7702C084B58F7D84BDC9
:1013800008958091B0008F7703C08091B0008F7D69
:101390008093B0000895CF93DF9390E0FC01EA5270
:1013A000FF4F2491FC01E651FF4F8491882361F1A6
:1013B00090E0880F991FFC01E85FFE4FC591D49122
:1013C000FC01E250FF4FA591B491611109C09FB794
:1013D000F8948881209582238883EC912E230BC07A
:1013E000623061F49FB7F8943881822F809583230F
:1013F0008883EC912E2B2C939FBF06C08FB7F89457
:10140000E8812E2B28838FBFDF91CF9108951F9302
:10141000CF93DF93282F30E0F901EE53FF4F8491F3
:10142000F901EA52FF4FD491F901E651FF4FC491FF
:10143000CC23C9F0162F81110E94A209EC2FF0E0F5
:10144000EE0FFF1FE250FF4FA591B4918FB7F894B4
:10145000111105C09C91ED2FE095E92302C0EC919C
:10146000ED2BEC938FBFDF91CF911F9108950895DD
:101470000E943D0A08F481E00895990F0008550F75
:10148000AA0BE0E8FEEF16161706E807F907C0F00A
:1014900012161306E407F50798F0621B730B840B12
:1014A000950B39F40A2661F0232B242B252B21F4EC
:1014B00008950A2609F4A140A6958FEF811D811D8C
:1014C00008950E943D0A08F48FEF08950E943D0A96
:1014D000880B990B089597FB072E16F4009407D0FC
:1014E00077FD09D00E94A10A07FC05D03EF4909533
:1014F00081959F4F0895709561957F4F0895A1E262
:101500001A2EAA1BBB1BFD010DC0AA1FBB1FEE1F7D
:10151000FF1FA217B307E407F50720F0A21BB30BC8
:10152000E40BF50B661F771F881F991F1A9469F744
:1015300060957095809590959B01AC01BD01CF01A0
:101540000895AA1BBB1B51E107C0AA1FBB1FA6170A
:10155000B70710F0A61BB70B881F991F5A95A9F75C
:1015600080959095BC01CD010895EE0FFF1F059069
:0A157000F491E02D0994F894FFCFE8
:10157A000154656D70657261747572652043203D12
:10158A00200020432E200054656D706572617475C9
:10159A0072652046203D200020462E00466972735F
:1015AA00742000205365636F6E64200040792430F4
:1015BA001912027800100700080009000A000B003F
:1015CA000C000D00000001000200030004000500E9
:1015DA000600000000006B05B606EC040605F804D8
:1015EA0049050D0A006E616E00696E66006F7666C7
:0215FA000000EF
:00000001FF
